S00F00006932635F6275732E737265636E
S11300000C9434000C9451000C9451000C94510045
S11300100C9451000C9451000C9451000C94510018
S11300200C9451000C9451000C9451000C94510008
S11300300C9451000C946C000C9451000C945100DD
S11300400C9451000C9451000C942A010C94580106
S11300500C9451000C9451000C9451000C945100D8
S11300600C9451000C94510011241FBECFEFD8E022
S1130070DEBFCDBF11E0A0E0B1E0ECEEF3E002C0E2
S113008005900D92A034B107D9F721E0A0E4B1E0C6
S113009001C01D92A53CB207E1F70E9453000C94E5
S11300A0F4010C9400000E94F90087E690E00E949D
S11300B08201E1E8F0E080818A7F80838081826030
S11300C08083EFE6F0E0808181608083789482E031
S11300D091E00E94B001FFCF1F920F920FB60F92D2
S11300E011241F932F933F934F935F936F937F93A9
S11300F08F939F93AF93BF93EF93FF93CF93DF932C
S113010000D0CDB7DEB780E390E39A8389838091F2
S11301100101823051F18330F1F1813009F050C096
S11301208091000191E0980F9093000187508037EF
S113013020F482E08093010146C0983781F480E284
S113014091E00E94B0014AE0BE016F5F7F4F80E002
S113015090E00E94BF01CE0101960E94B00110926E
S1130160000181E0809301012EC080910001880F7D
S11301700E940801182F0E942601111104C083E077
S11301808093010120C08DE391E00E94B00181E0E1
S11301908093010118C08091000140E1BE016F5FAE
S11301A07F4F90E00E94BF01CE0101960E94B001F2
S11301B08DE391E00E94B00181E08093010103C0CE
S11301C081E0809301010F900F90DF91CF91FF9117
S11301D0EF91BF91AF919F918F917F916F915F91BB
S11301E04F913F912F911F910F900FBE0F901F9031
S11301F0189587B18F7C87B988B1806388B9E9EB9A
S1130200F0E080818C7F808388E98093B800089532
S113021094EA9093BC00ECEBF0E090819923ECF726
S11302208093BB0084E88093BC00ECEBF0E0808119
S11302308823ECF79091B900987F983129F081E0F8
S1130240903419F480E0089580E0089584E980935F
S1130250BC0008951F920F920FB60F9211242F9392
S11302608F939F93EF93FF938091C0002091C600DA
S11302708C71E0914201EF5FEF7390914101E917B6
S113028039F0E0934201F0E0EB5BFE4F208301C0C4
S113029082E090914001892B80934001FF91EF917E
S11302A09F918F912F910F900FBE0F901F901895D3
S11302B01F920F920FB60F9211248F939F93EF9377
S11302C0FF939091440180914301981769F0E09164
S11302D04301EF5FEF73E0934301F0E0EB57FE4F10
S11302E080818093C60005C0E1ECF0E080818F7DC1
S11302F08083FF91EF919F918F910F900FBE0F908C
S11303001F901895109244011092430110924201DB
S11303101092410199231CF422E02093C0009078AC
S11303209093C5008093C40088E98093C10086E05F
S11303308093C2000895209144012F5F2F73909100
S113034043012917E1F3E22FF0E0EB57FE4F8083DE
S113035020934401E1ECF0E0808180628083089581
S1130360CF93DF93EC018881882331F021960E949A
S11303709B0189918111FBCFDF91CF910895BB2718
S11303804A3031F4992322F4BDE2909581959F4F30
S11303900C94CB01BB27FB015527AA27880F991F73
S11303A0AA1FA41710F0A41B83955051B9F7A05DA0
S11303B0AA3308F0A95DA193009779F7B111B1931D
S11303C01192CB010C94E401DC01FC01672F7191C3
S11303D07723E1F7329704C07C916D937083629127
S10F03E0AE17BF07C8F30895F894FFCFD0
S11303EC07010D0A5363616E204932432D62757304
S11303FC20666F7220646576696365733A0D0A0032
S113040C0A0A4E756D626572206F662064657465A8
S113041C6374656420646576696365733A200000CF
S9030000FC
